0000001ERIKA ROCHA                   06000700080020F
0000002PEDRO MANSE                   08001000080010M
0000003MATHEUS LIMA                  07000600090005M
0000004JULIA SOUZA                   09000900100002F
0000005CARLOS PEREIRA                05000700060015M
0000006ANA CLARA                     08000800090003F
0000007LUCAS FERNANDES               06000500070012M
0000008MARIANA SILVA                 07000900080004F
0000009RAFAEL COSTA                  08000800060007M
0000010ISABELA MOURA                 09001000090001F
0000011GABRIEL TEIXEIRA              05000600070018M
0000012LARISSA FREITAS               07000800090006F
0000013HENRIQUE ALMEIDA              08000900080009M
0000014CAMILA SANTOS                 06000700070008F
0000015RODRIGO NASCIMENTO            09000800100003M
0000016FERNANDA OLIVEIRA             08000900080005F
0000017DANIEL GOMES                  07000600070014M
0000018BEATRIZ LOPES                 06000700080007F
0000019ANDRÉ MARTINS                 08000900090004M
0000020PATRÍCIA ARAUJO               09001000090002F
0000021THIAGO MENDES                 06000600070010M
0000022BRUNA CASTRO                  07000900080005F
0000023EDUARDO DIAS                  08000800090007M
0000024NATÁLIA RAMOS                 09000900100001F
0000025FELIPE BARROS                 07000700080009M
0000026CAROLINA VIEIRA               06000800070011F
0000027VINICIUS MATTOS               08000900080006M
0000028LETÍCIA PINTO                 09001000090003F
0000029MARCOS BATISTA                05000600070013M
0000030SOPHIA MELO                   08000900080004F
0000031ANTONIO FERREIRA              07000700080012M
0000032CLARA LIMA                    06000900090005F
0000033RICARDO REZENDE               08000800070008M
0000034JÉSSICA SOUZA                 09001000100002F
0000035PAULO HENRIQUE                07000600080010M
0000036ALINE CARDOSO                 06000700090006F
0000037MURILO RIBEIRO                08000900080009M
0000038MANUELA GONÇALVES             09000900090001F
0000039OTÁVIO MOREIRA                07000800070007M
0000040LUIZA FIGUEIREDO              06000900080004F
0000041CAIO BARCELOS                 08000800090005M
0000042HELENA PIMENTA                09001000100002F
0000043JORGE BRITO                   07000700080008M
0000044MELISSA MOURÃO                06000800090006F
0000045ARTHUR PEIXOTO                08000900070007M
0000046SOFIA DUTRA                   09001000090003F
0000047IGOR CAVALCANTE               07000600080009M
0000048MIRELA ALVES                  06000700090005F
0000049GUILHERME FONSECA             08000900080004M
0000050VICTORIA ASSIS                09001000090001F
0000051BRENO MONTEIRO                07000800070012M
0000052MAYARA BARBOSA                06000900080007F
0000053DIOGO REZENDE                 08000800090005M
0000054CÁTIA TEIXEIRA                09000900100002F
0000055SAMUEL CORDEIRO               07000700080008M
0000056ÉVILIN OLIVEIRA               06000800070006F
0000057ADRIANO FARIA                 08000900090009M
0000058KARINA XAVIER                 09001000080003F
0000059CRISTIAN MORAES               07000600070011M
0000060MÔNICA FERREIRA               08000900090004F