00000000001MARIA OLIVEIRA                SPARACAJU                      1111222220012009
00000000002JOAO SILVA                    RJRIO DE JANEIRO               2222333320022009
00000000003ANA PEREIRA                   MGBELO HORIZONTE               3333444420032009
00000000004CARLOS SANTOS                 ESSERRA                        4444555520042009
00000000005FERNANDA LIMA                 PRCURITIBA                     5555666620052009
00000000006LUCAS ROCHA                   BAMANAUS                       6666777720062009
00000000007PAULA SOUZA                   PESALVADOR                     7777888820072009
00000000008ROBERTO MOURA                 CSSAO LUIS                     8888999920082010
00000000009MARCELA MENDES                GOPORTO ALEGRE                 9999000020092010
00000000010PEDRO GOMES                   SCFLORIANOPOLIS                1234432120102010
00000000011JULIANA COSTA                 MSSAO GABRIEL                  2345543220112010
00000000012RICARDO ALMEIDA               SPOURO PRETO                   3456654320122010
00000000013ANDREIA FERNANDES             RNRNATAL                       4567765420132010
00000000014GUSTAVO NASCIMENTO            PBJOAO PESSOA                  5678876520142010
00000000015SANDRA BARROS                 RJSANTOS                       6789987620152010
00000000016VICTOR MARTINS                SPBARUERI                      7891098720162011
00000000017PATRICIA CARDOSO              PRLONDRINA                     8902109820172011
00000000018RAFAEL SOARES                 RJRIO DE JANEIRO               9013210920182011
00000000019CAMILA FREITAS                DFBRASILIA                     1124321020192011
00000000020MARCOS TEIXEIRA               SPARARAQUARA                   2235432120202011
00000000021RENATA ARAUJO                 MGBELO HORIZONTE               3346543220212011
00000000022TIAGO MORAES                  BAMANAUS                       4457654320222011
00000000023PRISCILA LOPES                SPOSASCO                       5568765420232012
00000000024JORGE RAMOS                   RJNITEROI                      6679876520242012
00000000025LUANA SANTANA                 PEOLINDA                       7780987620252012
00000000026MATEUS BRAGA                  MSSINOP                        8891098720262012
00000000027ALINE PACHECO                 SCJOINVILLE                    9902109820272012
00000000028EDUARDO DIAS                  RNPARNAMIRIM                   1013210920282012
00000000029FABIANA MOTA                  SPGUARULHOS                    2124321020292012
00000000030IGOR BATISTA                  RJPETROPOLIS                   3235432120302012
